:020000040800F2
:10000000002800202D1E0008BD1D0008C31D00088B
:10001000C91D0008CF1D0008D51D00080000000004
:10002000000000000000000000000000DB1D0008D0
:10003000E71D000800000000F31D0008FF1D000878
:10004000751E0008751E0008751E0008751E000844
:10005000751E0008751E0008751E0008751E000834
:10006000751E0008751E0008751E0008751E000824
:10007000751E0008751E0008751E0008751E000814
:10008000751E0008751E0008751E0008751E000804
:10009000751E0008751E0008751E0008751E0008F4
:1000A000751E0008751E0008751E0008751E0008E4
:1000B0000D1E0008751E000800000000751E0008D7
:1000C000751E00080000000000000000751E0008FA
:1000D00000000000751E0008751E000800000000EA
:1000E000751E0008751E0008751E0008000000003F
:1000F0000000000000000000000000000000000000
:0C01000000000000000000005FF808F1A3
:10010C0010B5054C237833B9044B13B10448AFF345
:10011C0000800123237010BD6C0000200000000043
:10012C009C34000808B5034B1BB103490348AFF3DB
:10013C00008008BD00000000700000209C34000806
:10014C0080B400AF924B1B68002B5ED1914B1B68A7
:10015C00012B0AD1904B1B68013B8F4A13608E4BCD
:10016C000A225A608B4B00221A608B4B1B68002BA7
:10017C000BDD894B5B68002B07D1874B1B68013B60
:10018C00854A1360844B0A225A60834B5B68013B9F
:10019C00814A5360804B5B68002B40F0F4807E4BAF
:1001AC001B68002B28D17D4B1B68092B19DD7B4B61
:1001BC001B687B4A82FB03129210DB17D31A764A18
:1001CC001360764B1968764B83FB01239A10CB177F
:1001DC00D21A13469B0013445B00CA1A6E4B5A602A
:1001EC0003E06E4B1B686C4A5360694B02221A6029
:1001FC006C4B01221A60C6E0664B1B68002B40F06A
:10020C00C280644B01221A60BDE0614B1B68022B5B
:10021C005DD1604B1B68012B0AD15F4B1B68013B06
:10022C005D4A13605C4B0A225A605A4B00221A60DA
:10023C00594B1B68002B0BDD574B5B68002B07D110
:10024C00554B1B68013B544A1360534B0A225A60AE
:10025C00514B5B68013B504A53604F4B5B68002B22
:10026C0040F091804C4B1B68002B28D14E4B1B68E7
:10027C00092B19DD4C4B1B68494A82FB0312921067
:10028C00DB17D31A444A1360474B1968444B83FB62
:10029C0001239A10CB17D21A13469B0013445B0010
:1002AC00CA1A3D4B5A6003E03F4B1B683A4A5360F5
:1002BC00374B01221A603B4B01221A6063E0354B2D
:1002CC001B68002B5FD1334B01221A605BE0314B72
:1002DC001B68012B0AD1304B1B68013B2E4A136063
:1002EC002D4B0A225A602B4B00221A602A4B1B689A
:1002FC00002B0BDD284B5B68002B07D1264B1B68B2
:10030C00013B254A1360244B0A225A60224B5B683E
:10031C00013B214A5360204B5B68002B33D11E4BB1
:10032C001B68002B28D1214B1B68092B19DD1F4B97
:10033C001B681B4A82FB03129210DB17D31A164A56
:10034C0013601A4B1968164B83FB01239A10CB17B9
:10035C00D21A13469B0013445B00CA1A0E4B5A6008
:10036C0003E0124B1B680C4A5360094B00221A60C5
:10037C000C4B01221A6006E0064B1B68002B02D1C5
:10038C00044B01221A6000BFBD4680BC704700BF01
:10039C009000002088000020080000202000002091
:1003AC0067666666980000201C000020180000207C
:1003BC0080B400AF924B1B68002B5ED1914B1B6835
:1003CC00012B0AD1904B9B68013B8F4A93608E4B5B
:1003DC000A22DA608B4B00221A608B4B9B68002B35
:1003EC000BDD894BDB68002B07D1874B9B68013BEE
:1003FC00854A9360844B0A22DA60834BDB68013BAD
:10040C00814AD360804BDB68002B40F0F4807E4B3C
:10041C009B68002B28D17D4B1B68092B19DD7B4B6E
:10042C001B687B4A82FB03129210DB17D31A764AA5
:10043C009360764B1968764B83FB01239A10CB178C
:10044C00D21A13469B0013445B00CA1A6E4BDA6037
:10045C0003E06E4B1B686C4AD360694B02221A6036
:10046C006C4B01221A60C6E0664B1B68002B40F0F7
:10047C00C280644B01221A60BDE0614B1B68022BE9
:10048C005DD1604B1B68012B0AD15F4B9B68013B14
:10049C005D4A93605C4B0A22DA605A4B00221A6068
:1004AC00594B9B68002B0BDD574BDB68002B07D19E
:1004BC00554B9B68013B544A9360534B0A22DA60BC
:1004CC00514BDB68013B504AD3604F4BDB68002B30
:1004DC0040F091804C4B9B68002B28D14E4B1B68F5
:1004EC00092B19DD4C4B1B68494A82FB03129210F5
:1004FC00DB17D31A444A9360474B1968444B83FB70
:10050C0001239A10CB17D21A13469B0013445B009D
:10051C00CA1A3D4BDA6003E03F4B1B683A4AD36082
:10052C00374B01221A603B4B01221A6063E0354BBA
:10053C001B68002B5FD1334B01221A605BE0314BFF
:10054C001B68012B0AD1304B9B68013B2E4A9360F0
:10055C002D4B0A22DA602B4B00221A602A4B9B6827
:10056C00002B0BDD284BDB68002B07D1264B9B683F
:10057C00013B254A9360244B0A22DA60224BDB684C
:10058C00013B214AD360204BDB68002B33D11E4B3F
:10059C009B68002B28D1214B1B68092B19DD1F4BA5
:1005AC001B681B4A82FB03129210DB17D31A164AE4
:1005BC0093601A4B1968164B83FB01239A10CB17C7
:1005CC00D21A13469B0013445B00CA1A0E4BDA6016
:1005DC0003E0124B1B680C4AD360094B00221A60D3
:1005EC000C4B01221A6006E0064B1B68002B02D153
:1005FC00044B01221A6000BFBD4680BC704700BF8F
:10060C00000000208C0000200800002020000020AA
:10061C00676666669C0000201C0000201800002005
:10062C0098B500AFB04B1B68152B48D1AF4B1B686E
:10063C00012B40F09A81AE4B1B68002B1FD101227D
:10064C008021AC4801F013FF00224FF40041A9486F
:10065C0001F00DFFA44B1B68A74A5168A64AD2684B
:10066C00184600F08FF9A24B01221A604FF4FA7071
:10067C0001F06EFA00F0F6FD00F042FE75E100228A
:10068C0080219C4801F0F3FE01224FF4004199486F
:10069C0001F0EDFE944B1B68974A1168964A9268DC
:1006AC00184600F06FF9924B00221A604FF4FA7062
:1006BC0001F04EFAFFF744FDFFF77AFE55E18A4B45
:1006CC001B68162B67D18D4B1B68012B40F04D819D
:1006DC00874B1B68002B34D101228021854801F007
:1006EC00C6FE00224FF40041824801F0C0FE7E4B52
:1006FC001C68834B1A68834B83FB02139910D31726
:10070C00C91A0B469B000B445B00D11A7C4B1A6830
:10071C007C4B83FB02039810D317C01A03469B0033
:10072C0003445B00D01A0246204600F02BF900F07F
:10073C0035FE4FF4FA7001F027FA6D4B01221A6066
:10074C0013E1002280216B4801F091FE01224FF44D
:10075C000041684801F08BFE634B1868684B1B68BE
:10076C00684A82FB03129210DB17D11A644B1B6888
:10077C00644A82FB03429210DB17D31A1A4600F02C
:10078C0001F900F089FE4FF4FA7001F0FDF9584BB5
:10079C0000221A60E9E0544B1B68172B67D15A4BA7
:1007AC001B68012B40F0E180514B1B68002B34D1AE
:1007BC00012280214F4801F05AFE00224FF40041E3
:1007CC004C4801F054FE484B1C68504B1A684D4B7A
:1007DC0083FB02139910D317C91A0B469B000B44C9
:1007EC005B00D11A494B1A68464B83FB02039810E5
:1007FC00D317C01A03469B0003445B00D01A024671
:10080C00204600F0BFF800F0F3FD4FF4FA7001F051
:10081C00D7F9374B01221A60A7E000228021354816
:10082C0001F025FE01224FF40041324801F01FFE79
:10083C002D4B1868354B1B68324A82FB0312921001
:10084C00DB17D11A314B1B682E4A82FB03429210E4
:10085C00DB17D31A1A4600F095F800F01DFE4FF482
:10086C00FA7001F0ADF9224B00221A607DE0284BA2
:10087C001B68012B79D11E4B1B68002B4CD101221C
:10088C0080211C4801F0F3FD00224FF4004119486F
:10089C0001F0EDFD144B1C681E4B1A68194B83FBC1
:1008AC0002139910D317C91A0B469B000B445B001B
:1008BC00D11A184B1A68134B83FB02039810D317E9
:1008CC00C01A03469B0003445B00D01A0246204624
:1008DC0000F058F800F0B6FD4FF4FA7001F08CF906
:1008EC00034B01221A6040E004000020B0000020FD
:1008FC0094000020000C014008000020B8000020EB
:10090C001800002067666666C00000201C000020EE
:10091C00C80000202000002000228021144801F093
:10092C00A6FD01224FF40041114801F0A0FD114B2E
:10093C001868114B1B68114A82FB03129210DB17CB
:10094C00D11A0D4B1B680D4A82FB03429210DB1728
:10095C00D31A1A4600F016F800F09EFD4FF4FA7008
:10096C0001F04AF9064B00221A6000BF98BD00BF87
:10097C00000C014004000020200000206766666621
:10098C009400002080B584B000AFF860B9607A6044
:10099C00FB68153B032B00F2CF8001A252F823F029
:1009AC00BD0900081F0A0008810A0008E30A0008B4
:1009BC0001224FF48071784801F059FD00224FF468
:1009CC000071754801F053FD00224FF480617248AC
:1009DC0001F04DFD01224FF400616F4801F047FD1D
:1009EC0001224FF480516C4801F041FD01224FF47B
:1009FC000051694801F03BFD01224FF480416648EB
:100A0C0001F035FDB86800F0C9F8786800F078FAA4
:100A1C00BDE000224FF480715F4801F028FD0022F8
:100A2C004FF400715C4801F022FD01224FF480610B
:100A3C00594801F01CFD00224FF40061564801F0AA
:100A4C0016FD00224FF48051534801F010FD012295
:100A5C004FF40051504801F00AFD00224FF4804140
:100A6C004D4801F004FDB86800F098F8786800F083
:100A7C0047FA8CE000224FF48071474801F0F7FCF4
:100A8C0000224FF40071444801F0F1FC00224FF4B5
:100A9C008061414801F0EBFC00224FF400613E48BC
:100AAC0001F0E5FC01224FF480513B4801F0DFFCE2
:100ABC0001224FF40051384801F0D9FC00224FF4C8
:100ACC008041354801F0D3FCB86800F067F87868CD
:100ADC0000F016FA5BE001224FF480712E4801F011
:100AEC00C6FC00224FF400712B4801F0C0FC002220
:100AFC004FF48061284801F0BAFC01224FF40061E8
:100B0C00254801F0B4FC01224FF48051224801F039
:100B1C00AEFC00224FF400511F4801F0A8FC00224B
:100B2C004FF480411C4801F0A2FCB86800F036F884
:100B3C00786800F0E5F92AE001224FF4807116483C
:100B4C0001F095FC01224FF40071134801F08FFC69
:100B5C0001224FF48061104801F089FC01224FF40E
:100B6C0000610D4801F083FC01224FF480510A48CA
:100B7C0001F07DFC01224FF40051074801F077FC95
:100B8C0001224FF48041044801F071FC00BF00BF0A
:100B9C001037BD4680BD00BF000C014080B582B04F
:100BAC0000AF78607B68092B00F2808101A252F8BB
:100BBC0023F000BFE90B0008310C0008790C000889
:100BCC00C10C0008090D0008510D0008990D000812
:100BDC00E10D0008290E0008710E00080022012109
:100BEC00C64801F044FC00220221C44801F03FFC3D
:100BFC0000220421C14801F03AFC00220821BF4820
:100C0C0001F035FC00221021BC4801F030FC002220
:100C1C002021BA4801F02BFC01224021B74801F0F9
:100C2C0026FC67E101220121B44801F020FC0022DE
:100C3C000221B24801F01BFC00220421AF4801F054
:100C4C0016FC01220821AD4801F011FC01221021F3
:100C5C00AA4801F00CFC01222021A84801F007FC55
:100C6C0001224021A54801F002FC43E100220121B0
:100C7C00A24801F0FCFB00220221A04801F0F7FB86
:100C8C00012204219D4801F0F2FB002208219B481F
:100C9C0001F0EDFB00221021984801F0E8FB012245
:100CAC002021964801F0E3FB00224021934801F0FB
:100CBC00DEFB1FE100220121904801F0D8FB00224D
:100CCC0002218E4801F0D3FB002204218B4801F055
:100CDC00CEFB00220821894801F0C9FB012210211A
:100CEC00864801F0C4FB01222021844801F0BFFB9F
:100CFC0000224021814801F0BAFBFBE001220121D6
:100D0C007E4801F0B4FB002202217C4801F0AFFBCD
:100D1C0000220421794801F0AAFB0122082177481E
:100D2C0001F0A5FB01221021744801F0A0FB002268
:100D3C002021724801F09BFB002240216F4801F0FA
:100D4C0096FBD7E0002201216C4801F090FB0122B8
:100D5C0002216A4801F08BFB00220421674801F054
:100D6C0086FB00220821654801F081FB012210213D
:100D7C00624801F07CFB00222021604801F077FBE7
:100D8C00002240215D4801F072FBB3E000220121FA
:100D9C005A4801F06CFB01220221584801F067FB14
:100DAC0000220421554801F062FB0022082153481F
:100DBC0001F05DFB00221021504801F058FB00228D
:100DCC0020214E4801F053FB002240214B4801F0FA
:100DDC004EFB8FE000220121484801F048FB002225
:100DEC000221464801F043FB00220421434801F054
:100DFC003EFB01220821414801F039FB0122102160
:100E0C003E4801F034FB012220213C4801F02FFB2D
:100E1C0001224021394801F02AFB6BE0002201211C
:100E2C00364801F024FB00220221344801F01FFB5C
:100E3C0000220421314801F01AFB002208212F481E
:100E4C0001F015FB002210212C4801F010FB0022B0
:100E5C0020212A4801F00BFB00224021274801F0F9
:100E6C0006FB47E000220121244801F000FB002290
:100E7C000221224801F0FBFA002204211F4801F054
:100E8C00F6FA002208211D4801F0F1FA0122102186
:100E9C001A4801F0ECFA00222021184801F0E7FA78
:100EAC0000224021154801F0E2FA23E00122012141
:100EBC00124801F0DCFA01220221104801F0D7FAA5
:100ECC00012204210D4801F0D2FA012208210B481D
:100EDC0001F0CDFA01221021084801F0C8FA0122D4
:100EEC002021064801F0C3FA01224021034801F0F9
:100EFC00BEFA00BF00BF0837BD4680BD000C0140E4
:100F0C0080B582B000AF78607B68092B00F28081DD
:100F1C0001A252F823F000BF4D0F0008950F0008F6
:100F2C00DD0F0008251000086D100008B510000832
:100F3C00FD100008451100088D110008D51100089E
:100F4C0000220121C64801F092FA00220221C44875
:100F5C0001F08DFA00220421C14801F088FA002228
:100F6C000821BF4801F083FA00221021BC4801F08F
:100F7C007EFA00222021BA4801F079FA01224021A0
:100F8C00B74801F074FA67E101220121B44801F07D
:100F9C006EFA00220221B24801F069FA0022042103
:100FAC00AF4801F064FA01220821AD4801F05FFA64
:100FBC0001221021AA4801F05AFA01222021A84846
:100FCC0001F055FA01224021A54801F050FA43E105
:100FDC0000220121A24801F04AFA00220221A04875
:100FEC0001F045FA012204219D4801F040FA00224B
:100FFC0008219B4801F03BFA00221021984801F08F
:10100C0036FA01222021964801F031FA00224021C3
:10101C00934801F02CFA1FE100220121904801F0C5
:10102C0026FA002202218E4801F021FA0022042126
:10103C008B4801F01CFA00220821894801F017FAAC
:10104C0001221021864801F012FA01222021844845
:10105C0001F00DFA00224021814801F008FAFBE072
:10106C00012201217E4801F002FA002202217C4873
:10107C0001F0FDF900220421794801F0F8F9012270
:10108C000821774801F0F3F901221021744801F08E
:10109C00EEF900222021724801F0E9F900224021EA
:1010AC006F4801F0E4F9D7E0002201216C4801F00F
:1010BC00DEF9012202216A4801F0D9F9002204214B
:1010CC00674801F0D4F900220821654801F0CFF9F6
:1010DC0001221021624801F0CAF900222021604847
:1010EC0001F0C5F9002240215D4801F0C0F9B3E0E0
:1010FC00002201215A4801F0BAF901220221584874
:10110C0001F0B5F900220421554801F0B0F9002294
:10111C000821534801F0ABF900221021504801F08E
:10112C00A6F9002220214E4801F0A1F9002240210D
:10113C004B4801F09CF98FE000220121484801F056
:10114C0096F900220221464801F091F9002204216F
:10115C00434801F08CF901220821414801F087F93C
:10116C00012210213E4801F082F9012220213C4845
:10117C0001F07DF901224021394801F078F96BE04A
:10118C0000220121364801F072F900220221344874
:10119C0001F06DF900220421314801F068F90022B8
:1011AC0008212F4801F063F9002210212C4801F08E
:1011BC005EF9002220212A4801F059F90022402131
:1011CC00274801F054F947E000220121244801F09E
:1011DC004EF900220221224801F049F90022042193
:1011EC001F4801F044F9002208211D4801F03FF985
:1011FC00012210211A4801F03AF900222021184846
:10120C0001F035F900224021154801F030F923E0B6
:10121C0001220121124801F02AF901220221104871
:10122C0001F025F9012204210D4801F020F90122D9
:10123C0008210B4801F01BF901221021084801F08C
:10124C0016F901222021064801F011F90122402152
:10125C00034801F00CF900BF00BF0837BD4680BD44
:10126C000008014080B500AF234B1B68022B2CD02B
:10127C00022B3DDC002B02D0012B13D038E00022D6
:10128C004FF480611D4801F0F2F801224FF4006127
:10129C001A4801F0ECF801224FF48051174801F084
:1012AC00E6F826E001224FF48061144801F0DFF8E3
:1012BC0000224FF40061114801F0D9F801224FF4DB
:1012CC0080510E4801F0D3F813E001224FF48061F5
:1012DC000A4801F0CCF801224FF40061074801F0F4
:1012EC00C6F800224FF48051044801F0C0F800E029
:1012FC0000BF00BF80BD00BF90000020000801406F
:10130C0080B500AF234B1B68022B2CD0022B3DDC8D
:10131C00002B02D0012B13D038E000224FF40051E7
:10132C001D4801F0A4F801224FF480411A4801F045
:10133C009EF801224FF40041174801F098F826E07E
:10134C0001224FF40051144801F091F800224FF49F
:10135C008041114801F08BF801224FF400410E48F6
:10136C0001F085F813E001224FF400510A4801F016
:10137C007EF801224FF48041074801F078F80022F2
:10138C004FF40041044801F072F800E000BF00BFC8
:10139C0080BD00BF000000200008014080B500AFF8
:1013AC0000224FF48061114801F061F801224FF4E2
:1013BC0000610E4801F05BF801224FF480510B489C
:1013CC0001F055F800224FF40051084801F04FF895
:1013DC0001224FF48041054801F049F801224FF4F5
:1013EC000041024801F043F800BF80BD00080140F5
:1013FC0080B500AF01224FF48061114801F037F83D
:10140C0000224FF400610E4801F031F801224FF434
:10141C0080510B4801F02BF801224FF40051084881
:10142C0001F025F800224FF48041054801F01FF827
:10143C0001224FF40041024801F019F800BF80BDB1
:10144C000008014080B500AF01224FF480611148C3
:10145C0001F00DF801224FF400610E4801F007F87D
:10146C0000224FF480510B4801F001F801224FF497
:10147C000051084800F0FBFF01224FF48041054861
:10148C0000F0F5FF00224FF40041024800F0EFFF9E
:10149C0000BF80BD0008014080B500AF01224FF4B1
:1014AC008061114800F0E3FF01224FF400610E4807
:1014BC0000F0DDFF01224FF480510B4800F0D7FF04
:1014CC0001224FF40051084800F0D1FF01224FF4E3
:1014DC008041054800F0CBFF01224FF40041024847
:1014EC0000F0C5FF00BF80BD0008014080B500AF13
:1014FC002B4B1B68153B032B46D801A252F823F04B
:10150C001D1500083B150008591500087715000833
:10151C0000F08EF80346012B38D1214B16221A60AD
:10152C00204B00221A60204B01221A602EE000F0A2
:10153C007FF80346012B2BD1194B17221A60194B3C
:10154C0000221A60194B01221A6021E000F070F899
:10155C000346012B1ED1124B18221A60114B00228C
:10156C001A60134B01221A6014E000F061F8034674
:10157C00012B11D10A4B15221A600A4B00221A605A
:10158C000C4B01221A6007E000BF06E000BF04E02C
:10159C0000BF02E000BF00E000BF00BF80BD00BF85
:1015AC000400002094000020B8000020C00000209F
:1015BC00C8000020B000002080B500AF00F04AF851
:1015CC000346012B18D1144B1B68162B05D1134B5A
:1015DC001B680133114A13600EE00F4B1B68172B6D
:1015EC0005D10F4B1B6801330D4A136004E00D4B02
:1015FC001B6801330B4A136000F03EF80346012BC5
:10160C0008D1054B15221A60074B00221A60074BB4
:10161C0001221A6000BF80BD0400002018000020C9
:10162C001C0000202000002094000020B0000020AE
:10163C0080B400AF064B1B68012B04D1044B002275
:10164C001A60012300E000231846BD4680BC704799
:10165C00A000002080B400AF064B1B68012B04D106
:10166C00044B00221A60012300E000231846BD46FB
:10167C0080BC7047A400002080B400AF064B1B68F0
:10168C00012B04D1044B00221A60012300E000233B
:10169C001846BD4680BC7047A800002080B400AF3F
:1016AC00034B01221A6000BFBD4680BC704700BFCF
:1016BC00A000002080B400AF034B01221A6000BFD1
:1016CC00BD4680BC704700BFA400002080B400AFB2
:1016DC00034B01221A6000BFBD4680BC704700BF9F
:1016EC00A800002080B500AF224B1B68224A136073
:1016FC00224B1B681F4A13608021214800F0A0FE7A
:10170C0003461A461D4B1A601B4B1A68194B1B6873
:10171C009A422DD1174B1A68184B1B689A4227D145
:10172C00184B1A68154B1B689A420ED0134B1B684A
:10173C00144A1360114B1B68002B19D1FFF7AEFF35
:10174C00114B4FF4FA721A6012E00F4B1B68013BFD
:10175C000D4A13600C4B1B68002B09D1074B1B68FF
:10176C00002B01D1FFF79AFF074B4FF4FA721A6066
:10177C0000BF80BD2C00002028000020300000207D
:10178C0000080140340000202400002080B500AF88
:10179C00234B1B68234A1360234B1B68204A13609E
:1017AC004FF48071214800F04BFE03461A461E4B45
:1017BC001A601C4B1A681A4B1B689A422DD1184B95
:1017CC001A68194B1B689A4227D1194B1A68164B89
:1017DC001B689A420ED0144B1B68154A1360124BAF
:1017EC001B68002B19D1FFF765FF124B4FF4FA72EF
:1017FC001A6012E00F4B1B68013B0E4A13600D4B35
:10180C001B68002B09D1084B1B68002B01D1FFF77B
:10181C0051FF084B4FF4FA721A6000BF80BD00BF35
:10182C00400000203C000020440000200008014043
:10183C00480000203800002080B500AF234B1B6807
:10184C00234A1360234B1B68204A13604FF400712A
:10185C00214800F0F5FD03461A461E4B1A601C4B3E
:10186C001A681A4B1B689A422DD1184B1A68194BDF
:10187C001B689A4227D1194B1A68164B1B689A425F
:10188C000ED0144B1B68154A1360124B1B68002BAF
:10189C0019D1FFF71BFF124B4FF4FA721A6012E0CA
:1018AC000F4B1B68013B0E4A13600D4B1B68002B42
:1018BC0009D1084B1B68002B01D1FFF707FF084B20
:1018CC004FF4FA721A6000BF80BD00BF54000020B4
:1018DC005000002058000020000801405C0000204F
:1018EC004C00002080B500AF00F0C0FA00F02EF8DC
:1018FC0000F0B4F800F066F8124801F009FA124B47
:10190C001B68152B03D1642000F022F912E00E4B5A
:10191C001B68162B03D1642000F036F90AE00A4B41
:10192C001B68172B03D1642000F04AF902E06420F5
:10193C0000F062F9FFF7DAFDFFF73EFEFEF770FEEE
:10194C00F8E700BFD40000200400002080B590B060
:10195C0000AF07F1180328220021184601F090FD72
:10196C003B1D00221A605A609A60DA601A610223E9
:10197C00BB610123BB621023FB6200237B6307F175
:10198C001803184600F08CFD0346002B01D000F024
:10199C00D9F80F237B600023BB600023FB6000237E
:1019AC003B6100237B613B1D0021184600F0F8FFD2
:1019BC000346002B01D000F0C5F800BF4037BD46F0
:1019CC0080BD000080B586B000AF07F1080300228F
:1019DC001A605A609A60DA603B4600221A605A60BC
:1019EC001D4B4FF080421A601B4B41F63F725A6000
:1019FC00194B00229A60184B0922DA60164B002210
:101A0C001A61154B00229A61134801F031F9034613
:101A1C00002B01D000F096F84FF48053BB6007F117
:101A2C00080319460C4801F0C7FA0346002B01D0F5
:101A3C0000F088F800233B6000237B603B4619468E
:101A4C00054801F08FFC0346002B01D000F07AF81A
:101A5C0000BF1837BD4680BDD400002080B586B0CD
:101A6C0000AF07F1080300221A605A609A60DA602E
:101A7C00294B9B69284A43F004039361264B9B69CD
:101A8C0003F004037B607B68234B9B69224A43F081
:101A9C0008039361204B9B6903F008033B603B6890
:101AAC0000224FF67F411D4800F0E1FC00224FF66A
:101ABC00FF711B4800F0DBFC4FF67F43BB6001233A
:101ACC00FB6000233B6102237B6107F1080319468D
:101ADC00124800F03BFB4FF46073BB600023FB60CB
:101AEC0001233B6107F1080319460C4800F02EFB5B
:101AFC004FF6FF73BB600123FB6000233B610223A5
:101B0C007B6107F108031946054800F01FFB00BF75
:101B1C001837BD4680BD00BF0010024000080140D0
:101B2C00000C014080B582B000AF786000F080F806
:101B3C00FFF7D8FDFFF72AFEFFF77EFE00BF083740
:101B4C00BD4680BD80B400AF72B600BFFEE700009A
:101B5C0080B483B000AF78607B68084A82FB0312C4
:101B6C009210DB17D31A064A1360064B00221A6038
:101B7C0000BF0C37BD4680BC704700BF6766666609
:101B8C00AC000020B000002080B483B000AF7860BF
:101B9C007B68084A82FB03129210DB17D31A064AA1
:101BAC001360064B00221A6000BF0C37BD4680BC88
:101BBC00704700BF67666666B4000020B80000205E
:101BCC0080B483B000AF78607B68084A82FB031254
:101BDC009210DB17D31A064A1360064B00221A60C8
:101BEC0000BF0C37BD4680BC704700BF6766666699
:101BFC00BC000020C000002080B483B000AF78602F
:101C0C007B68084A82FB03129210DB17D31A064A30
:101C1C001360064B00221A6000BF0C37BD4680BC17
:101C2C00704700BF67666666C4000020C8000020CD
:101C3C0080B400AF294B1B68002B0BDD274B1B68B6
:101C4C00013B264A1360254B1B68002B02DC244BFE
:101C5C0001221A60234B1B68002B0BDD214B1B68E8
:101C6C00013B204A13601F4B1B68002B02DC1E4BF0
:101C7C0001221A601D4B1B68002B0BDD1B4B1B68D4
:101C8C00013B1A4A1360194B1B68002B02DC184BE2
:101C9C0001221A60174B1B68002B0BDD154B1B68C0
:101CAC00013B144A1360134B1B68002B02DC124BD4
:101CBC0001221A60114B1B68002B0BDD0F4B1B68AC
:101CCC00013B0E4A13600D4B1B68002B02DC0C4BC6
:101CDC0001221A6000BFBD4680BC7047AC000020DA
:101CEC00B0000020B4000020B8000020BC00002090
:101CFC00C0000020C4000020C8000020CC00002040
:101D0C00D000002080B485B000AF154B9B69144AFD
:101D1C0043F001039361124B9B6903F00103BB6019
:101D2C00BB680F4BDB690E4A43F08053D3610C4BFD
:101D3C00DB6903F080537B607B680A4B5B68FB605C
:101D4C00FB6823F0E063FB60FB6843F08063FB609F
:101D5C00044AFB68536000BF1437BD4680BC704713
:101D6C00001002400000014080B584B000AF7860E4
:101D7C007B681B68B3F1804F13D10C4BDB690B4AAA
:101D8C0043F00103D361094BDB6903F00103FB60F2
:101D9C00FB68002200211C2000F0A1F91C2000F09F
:101DAC00BAF900BF1037BD4680BD00BF001002401D
:101DBC0080B400AFFEE780B400AFFEE780B400AFA4
:101DCC00FEE780B400AFFEE780B400AFFEE780B45E
:101DDC0000AF00BFBD4680BC704780B400AF00BFF1
:101DEC00BD4680BC704780B400AF00BFBD4680BC10
:101DFC00704780B500AF00F07FF800BF80BD0000D9
:101E0C0080B500AF024800F0CFFF00BF80BD00BF1F
:101E1C00D400002080B400AF00BFBD4680BC70472A
:101E2C000C480D490D4A002302E0D458C450043329
:101E3C00C4188C42F9D30A4A0A4C002301E01360FF
:101E4C000432A242FBD3FFF7E5FF01F0F5FAFFF7EE
:101E5C0049FD7047000000206C000020DC340008B5
:101E6C006C00002020010020FEE7000080B500AFD0
:101E7C00084B1B68074A43F010031360032000F063
:101E8C0023F90F2000F008F8FFF73CFF0023184659
:101E9C0080BD00BF0020024080B582B000AF7860EA
:101EAC00124B1A68124B1B7819464FF47A73B3FB1A
:101EBC00F1F3B2FBF3F3184600F03BF90346002BA9
:101ECC0001D001230EE07B680F2B0AD80022796821
:101EDC004FF0FF3000F003F9064A7B6813600023D3
:101EEC0000E0012318460837BD4680BD6000002085
:101EFC00680000206400002080B400AF054B1B7804
:101F0C001A46054B1B681344034A136000BFBD46B9
:101F1C0080BC7047680000201C01002080B400AF1A
:101F2C00024B1B681846BD4680BC70471C01002044
:101F3C0080B485B000AF78607B6803F00703FB606A
:101F4C000C4BDB68BB60BA684FF6FF031340BB60F9
:101F5C00FB681A02BB68134343F0BF6343F40033BE
:101F6C00BB60044ABB68D36000BF1437BD4680BC5D
:101F7C00704700BF00ED00E080B400AF044BDB689D
:101F8C001B0A03F007031846BD4680BC704700BF10
:101F9C0000ED00E080B483B000AF0346FB7197F90D
:101FAC000730002B0BDBFB7903F01F02064997F976
:101FBC0007305B09012000FA02F241F8232000BF30
:101FCC000C37BD4680BC704700E100E080B483B0A4
:101FDC0000AF03463960FB7197F90730002B0ADB21
:101FEC003B68DAB20C4997F907301201D2B20B44B4
:101FFC0083F800230AE03B68DAB20849FB7903F066
:10200C000F03043B1201D2B20B441A7600BF0C37FB
:10201C00BD4680BC704700BF00E100E000ED00E071
:10202C0080B489B000AFF860B9607A60FB6803F0E7
:10203C000703FB61FB69C3F10703042B28BF0423CF
:10204C00BB61FB690433062B02D9FB69033B00E03F
:10205C0000237B614FF0FF32BB6902FA03F3DA43D2
:10206C00BB681A407B699A404FF0FF317B6901FADB
:10207C0003F3D9437B680B40134318462437BD4602
:10208C0080BC704780B582B000AF78607B68013B44
:10209C00B3F1807F01D301230FE00A4A7B68013B37
:1020AC0053600F214FF0FF30FFF790FF054B0022DC
:1020BC009A60044B07221A60002318460837BD4665
:1020CC0080BD00BF10E000E080B582B000AF78604A
:1020DC007868FFF72DFF00BF0837BD4680BD80B57F
:1020EC0086B000AF0346B9607A60FB7300237B6156
:1020FC00FFF742FF78617A68B9687869FFF790FF5B
:10210C00024697F90F3011461846FFF75FFF00BFE4
:10211C001837BD4680BD80B582B000AF0346FB7159
:10212C0097F907301846FFF735FF00BF0837BD4653
:10213C0080BD80B582B000AF78607868FFF7A2FFF1
:10214C00034618460837BD4680BD000080B48BB0EE
:10215C0000AF7860396000237B6200233B6248E16A
:10216C0001227B6A02FA03F3FB613B681B68FA6984
:10217C001340BB61BA69FB699A4240F037813B68F6
:10218C005B68A34A93425ED0A14A934275D8A14A98
:10219C00934258D09F4A93426FD89F4A934252D051
:1021AC009D4A934269D89D4A93424CD09B4A934294
:1021BC0063D89B4A934246D0994A93425DD8122BDE
:1021CC002AD8122B59D801A252F823F05322000816
:1021DC002D2200083F2200088122000887220008D7
:1021EC00872200088722000887220008872200081F
:1021FC00872200088722000887220008872200080F
:10220C0087220008872200088722000887220008FE
:10221C003522000849220008824A934213D02CE050
:10222C003B68DB683B6229E03B68DB6804333B625C
:10223C0024E03B68DB6808333B621FE03B68DB68EB
:10224C000C333B621AE03B689B68002B02D10423E1
:10225C003B6213E03B689B68012B05D108233B6272
:10226C007B68FA691A6109E008233B627B68FA69AA
:10227C005A6103E000233B6200E000BFBB69FF2B07
:10228C0001D87B6801E07B6804337B61BB69FF2B61
:10229C0002D87B6A9B0002E07B6A083B9B003B6197
:1022AC007B691A680F213B6901FA03F3DB431A407F
:1022BC00396A3B6901FA03F31A437B691A603B687C
:1022CC005B6803F08053002B00F09080564B9B69A9
:1022DC00554A43F001039361534B9B6903F001038F
:1022EC00BB60BB68514A7B6A9B08023352F82330AF
:1022FC00FB607B6A03F003039B000F2202FA03F3DB
:10230C00DB43FA681340FB607B68494A93420DD06B
:10231C007B68484A934207D07B68474A934201D175
:10232C00022304E0032302E0012300E000237A6A85
:10233C0002F0030292009340FA681343FB603B499E
:10234C007B6A9B080233FA6841F823203B685B6880
:10235C0003F48033002B06D0384B1A683749BB691D
:10236C0013430B6006E0354B1A68BB69DB433349FA
:10237C0013400B603B685B6803F40033002B06D002
:10238C002E4B5A682D49BB6913434B6006E02B4B0F
:10239C005A68BB69DB43294913404B603B685B6857
:1023AC0003F48013002B06D0244B9A682349BB6995
:1023BC0013438B6006E0214B9A68BB69DB431F49D2
:1023CC0013408B603B685B6803F40013002B06D052
:1023DC001A4BDA681949BB691343CB6006E0174BFB
:1023EC00DA68BB69DB4315491340CB607B6A013368
:1023FC007B623B681A687B6A22FA03F3002B7FF43A
:10240C00AFAE00BF00BF2C37BD4680BC704700BFCD
:10241C0000003210000031100000221000002110CA
:10242C0000001210000011100010024000000140CA
:10243C0000080140000C0140001001400004014064
:10244C0080B485B000AF78600B467B807B689A685F
:10245C007B881340002B02D00123FB7301E0002387
:10246C00FB73FB7B18461437BD4680BC704780B4A9
:10247C0083B000AF78600B467B8013467B707B7813
:10248C00002B03D07A887B681A6103E07B881A04DE
:10249C007B681A6100BF0C37BD4680BC70470000DA
:1024AC0080B586B000AF78607B68002B01D101232A
:1024BC006CE27B681B6803F00103002B00F0878043
:1024CC00924B5B6803F00C03042B0CD08F4B5B68B6
:1024DC0003F00C03082B12D18C4B5B6803F4803394
:1024EC00B3F5803F0BD1894B1B6803F40033002BF1
:1024FC006CD07B685B68002B68D1012346E27B685B
:10250C005B68B3F5803F06D1804B1B687F4A43F470
:10251C00803313602EE07B685B68002B0CD17B4B07
:10252C001B687A4A23F480331360784B1B68774A14
:10253C0023F4802313601DE07B685B68B3F5A02F48
:10254C000CD1724B1B68714A43F4802313606F4BA0
:10255C001B686E4A43F4803313600BE06B4B1B68B3
:10256C006A4A23F480331360684B1B68674A23F470
:10257C00802313607B685B68002B13D0FFF7CEFCC5
:10258C00386108E0FFF7CAFC02463B69D31A642B9A
:10259C0001D90323FAE15D4B1B6803F40033002BD4
:1025AC00F0D014E0FFF7BAFC386108E0FFF7B6FC96
:1025BC0002463B69D31A642B01D90323E6E1534B42
:1025CC001B6803F40033002BF0D100E000BF7B68E4
:1025DC001B6803F00203002B63D04C4B5B6803F0C9
:1025EC000C03002B0BD0494B5B6803F00C03082B3E
:1025FC001CD1464B5B6803F48033002B16D1434B44
:10260C001B6803F00203002B05D07B681B69012BB0
:10261C0001D00123BAE13D4B1B6823F0F8027B6823
:10262C005B69DB00394913430B603AE07B681B693B
:10263C00002B20D0364B01221A60FFF76FFC38615B
:10264C0008E0FFF76BFC02463B69D31A022B01D959
:10265C0003239BE12D4B1B6803F00203002BF0D0EE
:10266C002A4B1B6823F0F8027B685B69DB00274967
:10267C0013430B6015E0264B00221A60FFF74EFC4B
:10268C00386108E0FFF74AFC02463B69D31A022B7B
:10269C0001D903237AE11D4B1B6803F00203002BC5
:1026AC00F0D17B681B6803F00803002B3AD07B68E1
:1026BC009B69002B19D0174B01221A60FFF72EFCD7
:1026CC00386108E0FFF72AFC02463B69D31A022B5B
:1026DC0001D903235AE10D4B5B6A03F00203002B73
:1026EC00F0D0012000F0A6FA1CE00A4B00221A6080
:1026FC00FFF714FC38610FE0FFF710FC02463B6952
:10270C00D31A022B08D9032340E100BF001002406A
:10271C0000004242800442429E4B5B6A03F002037B
:10272C00002BE9D17B681B6803F00403002B00F03D
:10273C00A6800023FB75974BDB6903F08053002BBD
:10274C000DD1944BDB69934A43F08053D361914B89
:10275C00DB6903F08053BB60BB680123FB758E4BB8
:10276C001B6803F48073002B18D18B4B1B688A4AAF
:10277C0043F480731360FFF7D1FB386108E0FFF777
:10278C00CDFB02463B69D31A642B01D90323FDE030
:10279C00814B1B6803F48073002BF0D07B68DB68E3
:1027AC00012B06D17B4B1B6A7A4A43F0010313625F
:1027BC002DE07B68DB68002B0CD1764B1B6A754ACD
:1027CC0023F001031362734B1B6A724A23F0040358
:1027DC0013621CE07B68DB68052B0CD16D4B1B6A0C
:1027EC006C4A43F0040313626A4B1B6A694A43F058
:1027FC00010313620BE0674B1B6A664A23F001036B
:10280C001362644B1B6A634A23F0040313627B68F4
:10281C00DB68002B15D0FFF781FB38610AE0FFF76E
:10282C007DFB02463B69D31A41F28832934201D9AF
:10283C000323ABE0574B1B6A03F00203002BEED0D3
:10284C0014E0FFF76BFB38610AE0FFF767FB024609
:10285C003B69D31A41F28832934201D9032395E0A4
:10286C004C4B1B6A03F00203002BEED1FB7D012BBA
:10287C0005D1484BDB69474A23F08053D3617B6811
:10288C00DB69002B00F08180424B5B6803F00C038A
:10289C00082B61D07B68DB69022B46D13F4B0022B1
:1028AC001A60FFF73BFB386108E0FFF737FB024685
:1028BC003B69D31A022B01D9032367E0354B1B6804
:1028CC0003F00073002BF0D17B681B6AB3F5803FDB
:1028DC0008D1304B5B6823F400327B689B682D4930
:1028EC0013434B602B4B5B6823F474127B68196A9F
:1028FC007B685B6A0B43274913434B60274B0122D0
:10290C001A60FFF70BFB386108E0FFF707FB024684
:10291C003B69D31A022B01D9032337E01D4B1B68EB
:10292C0003F00073002BF0D02FE01C4B00221A6038
:10293C00FFF7F4FA386108E0FFF7F0FA02463B695A
:10294C00D31A022B01D9032320E0124B1B6803F08E
:10295C000073002BF0D118E07B68DB69012B01D1EF
:10296C00012313E00B4B5B68FB60FB6803F48032C4
:10297C007B681B6A9A4206D1FB6803F470127B6871
:10298C005B6A9A4201D0012300E0002318461837F5
:10299C00BD4680BD00100240007000406000424205
:1029AC0080B584B000AF786039607B68002B01D1B2
:1029BC000123D0E06A4B1B6803F007033A689A4284
:1029CC0010D9674B1B6823F0070265493B6813431A
:1029DC000B60634B1B6803F007033A689A4201D003
:1029EC000123B8E07B681B6803F00203002B20D0A6
:1029FC007B681B6803F00403002B05D0594B5B6804
:102A0C00584A43F4E06353607B681B6803F0080387
:102A1C00002B05D0534B5B68524A43F46053536010
:102A2C00504B5B6823F0F0027B689B684D49134365
:102A3C004B607B681B6803F00103002B40D07B6864
:102A4C005B68012B07D1474B1B6803F40033002B49
:102A5C0015D101237FE07B685B68022B07D1414BCA
:102A6C001B6803F00073002B09D1012373E03D4B6D
:102A7C001B6803F00203002B01D101236BE0394BDF
:102A8C005B6823F003027B685B68364913434B6039
:102A9C00FFF744FAF8600AE0FFF740FA0246FB68D9
:102AAC00D31A41F28832934201D9032353E02D4BC0
:102ABC005B6803F00C027B685B689B009A42EBD16D
:102ACC00274B1B6803F007033A689A4210D2244B39
:102ADC001B6823F0070222493B6813430B60204B11
:102AEC001B6803F007033A689A4201D0012332E0D5
:102AFC007B681B6803F00403002B08D0194B5B6840
:102B0C0023F4E0627B68DB68164913434B607B68F7
:102B1C001B6803F00803002B09D0124B5B6823F4ED
:102B2C0060527B681B69DB000E4913434B6000F05D
:102B3C0021F802460B4B5B681B0903F00F030A4993
:102B4C00CB5C22FA03F3094A1360094B1B68184645
:102B5C00FFF7A2F9002318461037BD4680BD00BF11
:102B6C000020024000100240C43400086000002025
:102B7C006400002090B48AB000AF2A4B3C1D0FCBF0
:102B8C0084E80F0040F201233B800023FB6100230B
:102B9C00BB6100237B6200237B6100233B62224BE1
:102BAC005B68FB61FB6903F00C03042B02D0082B60
:102BBC0003D02DE01D4B3B622DE0FB699B0C03F019
:102BCC000F0307F12802134413F8243C7B61FB69C3
:102BDC0003F48033002B13D0134B5B685B0C03F0B6
:102BEC00010307F12802134413F8283CBB617B69ED
:102BFC000E4A02FB03F2BB69B2FBF3F37B6204E007
:102C0C007B690B4A02FB03F37B627B6A3B6202E04B
:102C1C00064B3B6200BF3B6A18462837BD4690BC4A
:102C2C00704700BFB43400080010024000127A0054
:102C3C0000093D0080B485B000AF78600A4B1B687A
:102C4C000A4AA2FB03235B0A7A6802FB03F3FB60CC
:102C5C0000BFFB685A1EFA60002BF9D100BF00BF01
:102C6C001437BD4680BC704760000020D34D621005
:102C7C0080B582B000AF78607B68002B01D1012356
:102C8C0041E07B6893F83D30DBB2002B06D17B68CA
:102C9C00002283F83C207868FFF766F87B680222F4
:102CAC0083F83D207B681A687B680433194610460C
:102CBC0000F06AFA7B68012283F846207B680122C7
:102CCC0083F83E207B68012283F83F207B68012239
:102CDC0083F840207B68012283F841207B68012225
:102CEC0083F842207B68012283F843207B68012211
:102CFC0083F844207B68012283F845207B680122FD
:102D0C0083F83D20002318460837BD4680BD0000DF
:102D1C0080B485B000AF78607B6893F83D30DBB24F
:102D2C00012B01D0012335E07B68022283F83D2082
:102D3C007B681B68DA687B681B6842F00102DA600A
:102D4C007B681B68164A934209D07B681B68B3F1F9
:102D5C00804F04D07B681B68124A934211D17B6868
:102D6C001B689B6803F00703FB60FB68062B10D005
:102D7C007B681B681A687B681B6842F001021A604A
:102D8C0007E07B681B681A687B681B6842F00102CD
:102D9C001A60002318461437BD4680BC704700BF2C
:102DAC00002C01400004004080B582B000AF786078
:102DBC007B681B681B6903F00203022B22D17B6822
:102DCC001B68DB6803F00203022B1BD17B681B68BA
:102DDC006FF002021A617B6801221A777B681B680C
:102DEC009B6903F00303002B03D0786800F0B1F962
:102DFC0005E0786800F0A4F9786800F0B3F97B6816
:102E0C0000221A777B681B681B6903F00403042BF0
:102E1C0022D17B681B68DB6803F00403042B1BD1F5
:102E2C007B681B686FF004021A617B6802221A77B8
:102E3C007B681B689B6903F44073002B03D0786894
:102E4C0000F087F905E0786800F07AF9786800F00E
:102E5C0089F97B6800221A777B681B681B6903F071
:102E6C000803082B22D17B681B68DB6803F008037E
:102E7C00082B1BD17B681B686FF008021A617B68FA
:102E8C0004221A777B681B68DB6903F00303002BB1
:102E9C0003D0786800F05DF905E0786800F050F92F
:102EAC00786800F05FF97B6800221A777B681B68F2
:102EBC001B6903F01003102B22D17B681B68DB68A5
:102ECC0003F01003102B1BD17B681B686FF01002F2
:102EDC001A617B6808221A777B681B68DB6903F42C
:102EEC004073002B03D0786800F033F905E0786864
:102EFC0000F026F9786800F035F97B6800221A7723
:102F0C007B681B681B6903F00103012B0ED17B68E6
:102F1C001B68DB6803F00103012B07D17B681B687E
:102F2C006FF001021A617868FEF7FCFD7B681B6884
:102F3C001B6903F08003802B0ED17B681B68DB6858
:102F4C0003F08003802B07D17B681B686FF0800235
:102F5C001A61786800F067FA7B681B681B6903F0DC
:102F6C004003402B0ED17B681B68DB6803F04003E9
:102F7C00402B07D17B681B686FF040021A617868A0
:102F8C0000F0F9F87B681B681B6903F02003202B09
:102F9C000ED17B681B68DB6803F02003202B07D164
:102FAC007B681B686FF020021A61786800F032FAB7
:102FBC0000BF0837BD4680BD80B584B000AF7860D7
:102FCC0039607B6893F83C30012B01D10223B3E0CC
:102FDC007B68012283F83C207B68022283F83D2029
:102FEC007B681B689B68FB60FB6823F07703FB60C6
:102FFC00FB6823F47F43FB607B681B68FA689A606C
:10300C003B681B68B3F5005F3ED0B3F5005F00F280
:10301C008780B3F5805F00F08580B3F5805F7FD843
:10302C00702B1AD0702B7BD8602B50D0602B77D89C
:10303C00502B3CD0502B73D8402B58D0402B6FD8F2
:10304C00302B64D0302B6BD8202B60D0202B67D842
:10305C00002B5CD0102B5AD062E07B6818683B6860
:10306C0099683B685A683B68DB6800F05CF97B68E0
:10307C001B689B68FB60FB6843F07703FB607B6815
:10308C001B68FA689A604EE07B6818683B68996820
:10309C003B685A683B68DB6800F045F97B681B6845
:1030AC009A687B681B6842F480429A603BE07B68BC
:1030BC0018683B6859683B68DB681A4600F0BCF836
:1030CC007B681B685021184600F013F92BE07B68D5
:1030DC0018683B6859683B68DB681A4600F0DAF8F8
:1030EC007B681B686021184600F003F91BE07B68C5
:1030FC0018683B6859683B68DB681A4600F09CF816
:10310C007B681B684021184600F0F3F80BE07B68E5
:10311C001A683B681B681946104600F0EAF802E092
:10312C0000BF00E000BF7B68012283F83D207B6874
:10313C00002283F83C20002318461037BD4680BD82
:10314C0080B483B000AF786000BF0C37BD4680BC44
:10315C00704780B483B000AF786000BF0C37BD46B9
:10316C0080BC704780B483B000AF786000BF0C3770
:10317C00BD4680BC704780B483B000AF786000BFA0
:10318C000C37BD4680BC704780B485B000AF78600A
:10319C0039607B681B68FB607B68254A934207D0CB
:1031AC007B68B3F1804F03D07B68224A934208D1ED
:1031BC00FB6823F07003FB603B685B68FA681343A1
:1031CC00FB607B681A4A934207D07B68B3F1804F4F
:1031DC0003D07B68174A934208D1FB6823F44073F1
:1031EC00FB603B68DB68FA681343FB60FB6823F009
:1031FC0080023B685B691343FB607B68FA681A606A
:10320C003B689A687B68DA623B681A687B689A62EA
:10321C007B68074A934203D13B681A697B681A633F
:10322C007B6801225A6100BF1437BD4680BC7047D1
:10323C00002C01400004004080B487B000AFF8605F
:10324C00B9607A60FB681B6A7B61FB681B6A23F0C0
:10325C000102FB681A62FB689B693B613B6923F0C6
:10326C00F0033B617B681B013A6913433B617B694B
:10327C0023F00A037B617A69BB6813437B61FB68AB
:10328C003A699A61FB687A691A6200BF1C37BD46BD
:10329C0080BC704780B487B000AFF860B9607A60CA
:1032AC00FB681B6A23F01002FB681A62FB689B69BF
:1032BC007B61FB681B6A3B617B6923F470437B6118
:1032CC007B681B037A6913437B613B6923F0A00382
:1032DC003B61BB681B013A6913433B61FB687A692C
:1032EC009A61FB683A691A6200BF1C37BD4680BC04
:1032FC00704780B485B000AF786039607B689B689C
:10330C00FB60FB6823F07003FB603A68FB681343B7
:10331C0043F00703FB607B68FA689A6000BF1437C0
:10332C00BD4680BC704780B487B000AFF860B96010
:10333C007A603B60FB689B687B617B6923F47F430D
:10334C007B613B681A027B681A43BB6813437A693A
:10335C0013437B61FB687A699A6000BF1C37BD46DA
:10336C0080BC704780B485B000AF786039607B68F2
:10337C0093F83C30012B01D1022341E07B68012200
:10338C0083F83C207B68022283F83D207B681B6815
:10339C005B68FB607B681B689B68BB60FB6823F009
:1033AC007003FB603B681B68FA681343FB607B6827
:1033BC001B68FA685A607B681B68144A934209D0F0
:1033CC007B681B68B3F1804F04D07B681B68104A84
:1033DC0093420CD1BB6823F08003BB603B685B68F5
:1033EC00BA681343BB607B681B68BA689A607B68D9
:1033FC00012283F83D207B68002283F83C200023C7
:10340C0018461437BD4680BC704700BF002C0140E5
:10341C000004004080B483B000AF786000BF0C376C
:10342C00BD4680BC704780B483B000AF786000BFED
:10343C000C37BD4680BC704770B500260C4D0D4C4A
:10344C00641BA410A64209D100F022F800260A4DF4
:10345C000A4C641BA410A64205D170BD55F8043B60
:10346C0098470136EEE755F8043B98470136F2E7EA
:10347C00D4340008D4340008D4340008D8340008FC
:10348C0003460244934200D1704703F8011BF9E74D
:10349C00F8B500BFF8BC08BC9E467047F8B500BF35
:0834AC00F8BC08BC9E46704705
:1034B40002030405060708090A0B0C0D0E0F101071
:1034C40000000000000000000102030406070809D0
:0434D40031010008BA
:0434D8000D010008DA
:1034DC0002000000150000000000000005000000C4
:1034EC0000000000030000000500000002000000C6
:1034FC0003000000F40100000100000001000000C6
:10350C000100000001000000F401000001000000B7
:10351C00010000000100000001000000F4010000A7
:10352C00010000000100000001000000010000008B
:0C353C000024F40010000000010000005A
:0400000508001E2DA4
:00000001FF
